{
  "address": "0x706C36057D7363a9313A545280a6CA310e0c1A47",
  "abi": [
    {
      "inputs": [
        {
          "internalType": "address",
          "name": "_lock",
          "type": "address"
        },
        {
          "internalType": "address",
          "name": "_router",
          "type": "address"
        },
        {
          "internalType": "address",
          "name": "_factory",
          "type": "address"
        }
      ],
      "stateMutability": "nonpayable",
      "type": "constructor"
    },
    {
      "inputs": [],
      "name": "AlreadyTokenActive",
      "type": "error"
    },
    {
      "inputs": [
        {
          "internalType": "uint16",
          "name": "optionType",
          "type": "uint16"
        }
      ],
      "name": "InvalidOptionType",
      "type": "error"
    },
    {
      "inputs": [],
      "name": "NoTokenActive",
      "type": "error"
    },
    {
      "inputs": [],
      "name": "NotAllowed",
      "type": "error"
    },
    {
      "inputs": [],
      "name": "OutOfFunds",
      "type": "error"
    },
    {
      "inputs": [
        {
          "internalType": "uint8",
          "name": "bits",
          "type": "uint8"
        },
        {
          "internalType": "uint256",
          "name": "value",
          "type": "uint256"
        }
      ],
      "name": "SafeCastOverflowedUintDowncast",
      "type": "error"
    },
    {
      "anonymous": false,
      "inputs": [
        {
          "indexed": true,
          "internalType": "address",
          "name": "account",
          "type": "address"
        },
        {
          "indexed": true,
          "internalType": "uint256",
          "name": "tokenId",
          "type": "uint256"
        },
        {
          "indexed": false,
          "internalType": "uint8",
          "name": "rarity",
          "type": "uint8"
        }
      ],
      "name": "Deposit",
      "type": "event"
    },
    {
      "anonymous": false,
      "inputs": [
        {
          "indexed": true,
          "internalType": "address",
          "name": "account",
          "type": "address"
        },
        {
          "indexed": true,
          "internalType": "uint256",
          "name": "tokenId",
          "type": "uint256"
        }
      ],
      "name": "Withdraw",
      "type": "event"
    },
    {
      "stateMutability": "payable",
      "type": "fallback"
    },
    {
      "inputs": [],
      "name": "PERCENTAGE_DIVISOR",
      "outputs": [
        {
          "internalType": "uint256",
          "name": "",
          "type": "uint256"
        }
      ],
      "stateMutability": "view",
      "type": "function"
    },
    {
      "inputs": [
        {
          "internalType": "address",
          "name": "wallet",
          "type": "address"
        }
      ],
      "name": "_resolveVaultOwner",
      "outputs": [
        {
          "internalType": "address",
          "name": "",
          "type": "address"
        }
      ],
      "stateMutability": "view",
      "type": "function"
    },
    {
      "inputs": [
        {
          "internalType": "address",
          "name": "user",
          "type": "address"
        },
        {
          "internalType": "uint256",
          "name": "tokenId",
          "type": "uint256"
        },
        {
          "internalType": "uint8",
          "name": "rarity",
          "type": "uint8"
        }
      ],
      "name": "activateTokenForUser",
      "outputs": [],
      "stateMutability": "nonpayable",
      "type": "function"
    },
    {
      "inputs": [],
      "name": "factory",
      "outputs": [
        {
          "internalType": "address",
          "name": "",
          "type": "address"
        }
      ],
      "stateMutability": "view",
      "type": "function"
    },
    {
      "inputs": [
        {
          "internalType": "address",
          "name": "wallet",
          "type": "address"
        }
      ],
      "name": "getFeeReduction",
      "outputs": [
        {
          "internalType": "uint256",
          "name": "",
          "type": "uint256"
        }
      ],
      "stateMutability": "view",
      "type": "function"
    },
    {
      "inputs": [],
      "name": "lock",
      "outputs": [
        {
          "internalType": "address",
          "name": "",
          "type": "address"
        }
      ],
      "stateMutability": "view",
      "type": "function"
    },
    {
      "inputs": [],
      "name": "router",
      "outputs": [
        {
          "internalType": "address",
          "name": "",
          "type": "address"
        }
      ],
      "stateMutability": "view",
      "type": "function"
    },
    {
      "inputs": [],
      "name": "strategyVaultInterfaceId",
      "outputs": [
        {
          "internalType": "bytes4",
          "name": "",
          "type": "bytes4"
        }
      ],
      "stateMutability": "view",
      "type": "function"
    },
    {
      "inputs": [
        {
          "internalType": "address",
          "name": "",
          "type": "address"
        }
      ],
      "name": "userTokenInfos",
      "outputs": [
        {
          "internalType": "uint256",
          "name": "tokenId",
          "type": "uint256"
        },
        {
          "internalType": "uint8",
          "name": "rarity",
          "type": "uint8"
        }
      ],
      "stateMutability": "view",
      "type": "function"
    },
    {
      "inputs": [
        {
          "internalType": "uint128",
          "name": "customGasLimit",
          "type": "uint128"
        }
      ],
      "name": "withdrawToken",
      "outputs": [],
      "stateMutability": "nonpayable",
      "type": "function"
    },
    {
      "stateMutability": "payable",
      "type": "receive"
    }
  ],
  "transactionHash": "0x9468385b48c3ae146d21abc40b289cf2fa0a5e2ca4668b9a6715c43ee24edc56",
  "args": [
    "0x75B9a6759bF03Deed169792c86111Dd7037f97EB",
    "0x9294e9D2C8Da3a2F500A8772c8Bec08d95516e80",
    "0xc245f625b416F8Da96dD0Bfc3d190cd9FeC262A3"
  ],
  "numDeployments": 2,
  "solcInputHash": "9855c2804d2e33a3e83fdbdef732e2d1",
  "bytecode": "0x60e06040526000805463ffffffff1916633d6efa6117905534801561002357600080fd5b50604051610f23380380610f238339810160408190526100429161007b565b6001600160a01b0392831660805290821660a0521660c0526100be565b80516001600160a01b038116811461007657600080fd5b919050565b60008060006060848603121561009057600080fd5b6100998461005f565b92506100a76020850161005f565b91506100b56040850161005f565b90509250925092565b60805160a05160c051610e136101106000396000818161017501526102b0015260008181610234015281816103b9015281816105c8015261068f01526000818161020001526107600152610e136000f3fe60806040526004361061008f5760003560e01c8063caf2976511610056578063caf2976514610197578063e474ad9a146101bb578063f83d08ba146101ee578063f887ea4014610222578063fdfdc29c1461025657005b8063270928ea146100985780637e0cf529146100d5578063ae4df4b4146100f5578063b039492214610143578063c45a01551461016357005b3661009657005b005b3480156100a457600080fd5b506100b86100b3366004610b57565b610276565b6040516001600160a01b0390911681526020015b60405180910390f35b3480156100e157600080fd5b506100966100f0366004610b74565b6103ae565b34801561010157600080fd5b5061012c610110366004610b57565b6001602081905260009182526040909120805491015460ff1682565b6040805192835260ff9091166020830152016100cc565b34801561014f57600080fd5b5061009661015e366004610bbc565b6104b1565b34801561016f57600080fd5b506100b87f000000000000000000000000000000000000000000000000000000000000000081565b3480156101a357600080fd5b506101ad61271081565b6040519081526020016100cc565b3480156101c757600080fd5b506000546101d59060e01b81565b6040516001600160e01b031990911681526020016100cc565b3480156101fa57600080fd5b506100b87f000000000000000000000000000000000000000000000000000000000000000081565b34801561022e57600080fd5b506100b87f000000000000000000000000000000000000000000000000000000000000000081565b34801561026257600080fd5b506101ad610271366004610b57565b61072f565b6000816001600160a01b03163b60000361028e575090565b60405163a26b2a1760e01b81526001600160a01b0383811660048301526000917f00000000000000000000000000000000000000000000000000000000000000009091169063a26b2a1790602401602060405180830381865afa1580156102f9573d6000803e3d6000fd5b505050506040513d601f19601f8201168201806040525081019061031d9190610bfa565b90508061032b575090919050565b6000836001600160a01b0316638da5cb5b6040518163ffffffff1660e01b8152600401602060405180830381865afa15801561036b573d6000803e3d6000fd5b505050506040513d601f19601f8201168201806040525081019061038f9190610c15565b90506001600160a01b0381166103a757509192915050565b9392505050565b336001600160a01b037f000000000000000000000000000000000000000000000000000000000000000016146103f757604051631eb49d6d60e11b815260040160405180910390fd5b6001600160a01b0383166000908152600160205260409020541561042e5760405163bc63666f60e01b815260040160405180910390fd5b60408051808201825283815260ff83811660208084018281526001600160a01b038916600081815260018085529088902096518755915195909101805460ff19169590941694909417909255925192835284927ff763e680fce25a97ffd55d8b705370c98b47b2285f7b3b2900c43606fd418045910160405180910390a3505050565b3360009081526001602081815260408084208151808301909252805480835293015460ff1691810191909152918190036104fe5760405163dfba2be560e01b815260040160405180910390fd5b6040805180820182526000808252602080830182815233808452600180845286852095518655915194909101805460ff191660ff95861617905586820151855192830191909152938101859052929091166060830152906080016040516020818303038152906040529050600080856001600160801b03161161058f576040805160008152602081019091526105c2565b6105c28560006105bb60408051600360f01b602082015281516002818303018152602290910190915290565b919061085f565b905060007f00000000000000000000000000000000000000000000000000000000000000006001600160a01b031663cbb02ae984846040518363ffffffff1660e01b8152600401610614929190610c82565b602060405180830381865afa158015610631573d6000803e3d6000fd5b505050506040513d601f19601f820116820180604052508101906106559190610cb0565b90508047101561067857604051632e626a7160e11b815260040160405180910390fd5b604051630af8b70960e01b81526001600160a01b037f00000000000000000000000000000000000000000000000000000000000000001690630af8b7099083906106c89087908790600401610c82565b6000604051808303818588803b1580156106e157600080fd5b505af11580156106f5573d6000803e3d6000fd5b50506040518793503392507f884edad9ce6fa2440d8a54cc123490eb96d2768479d49ff9c7366125a94243649150600090a3505050505050565b60008061073b83610276565b604051637238ccdb60e01b81526001600160a01b0380831660048301529192506000917f00000000000000000000000000000000000000000000000000000000000000001690637238ccdb90602401608060405180830381865afa1580156107a7573d6000803e3d6000fd5b505050506040513d601f19601f820116820180604052508101906107cb9190610cc9565b509250505060006107db826108cc565b6001600160a01b03841660009081526001602081815260408084208151808301909252805480835293015460ff169181019190915292935090919080156108405761083d826020015160ff16600481111561083857610838610d15565b610980565b92505b6000838510156108505783610852565b845b9998505050505050505050565b606083600361086f8260006109c6565b61ffff16146108a8576108838160006109c6565b604051633a51740d60e01b815261ffff90911660048201526024015b60405180910390fd5b60006108b48585610a29565b90506108c286600183610aa1565b9695505050505050565b600060018260058111156108e2576108e2610d15565b036108f057506101f4919050565b600282600581111561090457610904610d15565b0361091257506102ee919050565b600382600581111561092657610926610d15565b0361093457506103e8919050565b600482600581111561094857610948610d15565b0361095657506105dc919050565b600582600581111561096a5761096a610d15565b0361097857506109c4919050565b506000919050565b6000600382600481111561099657610996610d15565b036109a45750611388919050565b60048260048111156109b8576109b8610d15565b036109785750611388919050565b60006109d3826002610d41565b83511015610a1a5760405162461bcd60e51b8152602060048201526014602482015273746f55696e7431365f6f75744f66426f756e647360601b604482015260640161089f565b50818101600201515b92915050565b60606001600160801b03821615610a7157604080516001600160801b0319608086811b8216602084015285901b166030820152016040516020818303038152906040526103a7565b6040516001600160801b0319608085901b1660208201526030016040516020818303038152906040529392505050565b6060836003610ab18260006109c6565b61ffff1614610ac5576108838160006109c6565b846001610ad28551610b0c565b610add906001610d54565b8686604051602001610af3959493929190610d76565b6040516020818303038152906040529150509392505050565b600061ffff821115610b3b576040516306dfcc6560e41b8152601060048201526024810183905260440161089f565b5090565b6001600160a01b0381168114610b5457600080fd5b50565b600060208284031215610b6957600080fd5b81356103a781610b3f565b600080600060608486031215610b8957600080fd5b8335610b9481610b3f565b925060208401359150604084013560ff81168114610bb157600080fd5b809150509250925092565b600060208284031215610bce57600080fd5b81356001600160801b03811681146103a757600080fd5b80518015158114610bf557600080fd5b919050565b600060208284031215610c0c57600080fd5b6103a782610be5565b600060208284031215610c2757600080fd5b81516103a781610b3f565b60005b83811015610c4d578181015183820152602001610c35565b50506000910152565b60008151808452610c6e816020860160208601610c32565b601f01601f19169290920160200192915050565b604081526000610c956040830185610c56565b8281036020840152610ca78185610c56565b95945050505050565b600060208284031215610cc257600080fd5b5051919050565b60008060008060808587031215610cdf57600080fd5b8451935060208501519250604085015160068110610cfc57600080fd5b9150610d0a60608601610be5565b905092959194509250565b634e487b7160e01b600052602160045260246000fd5b634e487b7160e01b600052601160045260246000fd5b80820180821115610a2357610a23610d2b565b61ffff818116838216019080821115610d6f57610d6f610d2b565b5092915050565b60008651610d88818460208b01610c32565b6001600160f81b031960f888811b82169285019283526001600160f01b031960f089901b16600184015286901b1660038201528351610dce816004840160208801610c32565b0160040197965050505050505056fea2646970667358221220088010a0736e1e8a0eec99bad9a6376e52dd476d0ae9599fb0042392ac9f409464736f6c63430008160033",
  "devdoc": {
    "author": "3Blocks UG",
    "details": "This contract resolves the effective user address in case the provided wallet is a StrategyVault contract by: - Checking ERC165 supportsInterface for IStrategyVault - Resolving the underlying owner() if applicable The final fee reduction is defined as the maximum of: - The reduction derived from the user's lock tier - The reduction derived from the deposited NFT rarity Fee reductions are expressed in basis points (bps), where 10_000 = 100%. This contract is designed to be read-only for fee logic, except for explicit NFT deposit/withdrawal by users.",
    "errors": {
      "SafeCastOverflowedUintDowncast(uint8,uint256)": [
        {
          "details": "Value doesn't fit in an uint of `bits` size."
        }
      ]
    },
    "events": {
      "Deposit(address,uint256,uint8)": {
        "params": {
          "account": "The user receiving activation",
          "rarity": "The rarity of the deposited NFT",
          "tokenId": "The deposited NFT tokenId"
        }
      },
      "Withdraw(address,uint256)": {
        "params": {
          "account": "The withdrawing user",
          "tokenId": "The withdrawn tokenId"
        }
      }
    },
    "kind": "dev",
    "methods": {
      "_resolveVaultOwner(address)": {
        "details": "If the wallet is an EOA, it is returned directly. If the wallet is a contract, this function attempts to: 1. Detect if it supports the IStrategyVault interface via ERC165. 2. If so, attempt to resolve the underlying owner() address. If any step fails (revert, invalid return data, zero owner), the original wallet address is used as a safe fallback. This ensures robustness against: - Non-compliant contracts - Malicious or reverting implementations - Unexpected ABI behavior",
        "params": {
          "wallet": "The wallet or contract address to resolve."
        },
        "returns": {
          "_0": "resolved The resolved owner or original wallet address."
        }
      },
      "activateTokenForUser(address,uint256,uint8)": {
        "details": "Router-only function, called when an NFT activation message arrives cross-chain Requirements: - Caller must be router - User must not already have an active token Emits {Deposit}",
        "params": {
          "rarity": "The rarity classification of the NFT",
          "tokenId": "The activated NFT tokenId",
          "user": "The user receiving the activation"
        }
      },
      "getFeeReduction(address)": {
        "details": "If the wallet is a StrategyVault, the underlying owner is resolved and used for fee calculation. The returned reduction is the maximum of: - Lock-tier based fee reduction - NFT-rarity based fee reduction If neither applies, returns 0.",
        "params": {
          "wallet": "The wallet or StrategyVault address to query."
        },
        "returns": {
          "_0": "reduction The fee reduction in basis points (bps)."
        }
      },
      "withdrawToken(uint128)": {
        "details": "Resets the user's deposited token state and transfers the token back to the user. Requirements: - The caller must have a token deposited. Emits a {Withdraw} event."
      }
    },
    "stateVariables": {
      "lock": {
        "details": "Used to resolve the user's lock tier for fee reduction."
      },
      "userTokenInfos": {
        "details": "Each user may deposit at most one NFT at a time. A value of 0 indicates no NFT deposited."
      }
    },
    "title": "FeeReduction",
    "version": 1
  },
  "userdoc": {
    "errors": {
      "AlreadyTokenActive()": [
        {
          "notice": "User already has an active deposited token"
        }
      ],
      "NoTokenActive()": [
        {
          "notice": "User has no active token deposited"
        }
      ],
      "NotAllowed()": [
        {
          "notice": "Caller is not allowed (router-only)"
        }
      ],
      "OutOfFunds()": [
        {
          "notice": "Contract has insufficient native funds to send cross-chain message"
        }
      ]
    },
    "events": {
      "Deposit(address,uint256,uint8)": {
        "notice": "Emitted when a token is deposited for a user"
      },
      "Withdraw(address,uint256)": {
        "notice": "Emitted when a user withdraws their deposited token"
      }
    },
    "kind": "user",
    "methods": {
      "PERCENTAGE_DIVISOR()": {
        "notice": "Divisor for percentage calculations (10000 = 100%)."
      },
      "_resolveVaultOwner(address)": {
        "notice": "Resolves the effective user address for fee calculations."
      },
      "activateTokenForUser(address,uint256,uint8)": {
        "notice": "Deposits a token activation for a user"
      },
      "getFeeReduction(address)": {
        "notice": "Returns the effective fee reduction for a given wallet."
      },
      "lock()": {
        "notice": "Address of the Tiered Token Locker contract."
      },
      "router()": {
        "notice": "Returns the router allowed to deposit tokens"
      },
      "userTokenInfos(address)": {
        "notice": "Mapping of user address to deposited NFT tokenId."
      },
      "withdrawToken(uint128)": {
        "notice": "Withdraws the previously deposited token."
      }
    },
    "notice": "Provides a unified fee reduction mechanism based on: 1) Token lock tiers 2) Deposited NFT rarity",
    "version": 1
  },
  "storageLayout": {
    "storage": [
      {
        "astId": 3643,
        "contract": "contracts/StrategyBuilderFeeReduction.sol:StrategyBuilderFeeReduction",
        "label": "strategyVaultInterfaceId",
        "offset": 0,
        "slot": "0",
        "type": "t_bytes4"
      },
      {
        "astId": 3649,
        "contract": "contracts/StrategyBuilderFeeReduction.sol:StrategyBuilderFeeReduction",
        "label": "userTokenInfos",
        "offset": 0,
        "slot": "1",
        "type": "t_mapping(t_address,t_struct(TokenInfo)4088_storage)"
      }
    ],
    "types": {
      "t_address": {
        "encoding": "inplace",
        "label": "address",
        "numberOfBytes": "20"
      },
      "t_bytes4": {
        "encoding": "inplace",
        "label": "bytes4",
        "numberOfBytes": "4"
      },
      "t_mapping(t_address,t_struct(TokenInfo)4088_storage)": {
        "encoding": "mapping",
        "key": "t_address",
        "label": "mapping(address => struct IStrategyBuilderFeeReduction.TokenInfo)",
        "numberOfBytes": "32",
        "value": "t_struct(TokenInfo)4088_storage"
      },
      "t_struct(TokenInfo)4088_storage": {
        "encoding": "inplace",
        "label": "struct IStrategyBuilderFeeReduction.TokenInfo",
        "members": [
          {
            "astId": 4085,
            "contract": "contracts/StrategyBuilderFeeReduction.sol:StrategyBuilderFeeReduction",
            "label": "tokenId",
            "offset": 0,
            "slot": "0",
            "type": "t_uint256"
          },
          {
            "astId": 4087,
            "contract": "contracts/StrategyBuilderFeeReduction.sol:StrategyBuilderFeeReduction",
            "label": "rarity",
            "offset": 0,
            "slot": "1",
            "type": "t_uint8"
          }
        ],
        "numberOfBytes": "64"
      },
      "t_uint256": {
        "encoding": "inplace",
        "label": "uint256",
        "numberOfBytes": "32"
      },
      "t_uint8": {
        "encoding": "inplace",
        "label": "uint8",
        "numberOfBytes": "1"
      }
    }
  }
}